:08000000803102288731FD2F39
:100E7A004001941203307E01A5000800803046012B
:100E8A00960027309500C0309400080087313D272E
:100E9A0087318731432787318731552787310800C2
:100EAA000130450190004F308D008C014E010D1329
:100EBA0045018E17080087314B2787314B30400197
:100ECA00A0000030A10087318D2787316B2F803138
:100EDA000228F401F501701C732F742F782F720801
:100EEA00F4077308F53D0130F235F30D890B792FBC
:100EFA000130F136F00C890B7E2F70087104031D46
:100F0A00872F882F702F7508F1007408F0000800E9
:100F1A006430F6000030F70040012108F100200893
:100F2A00F0004030F2000130F30087316E2787313C
:100F3A007108F9007008F8008731C12787317708EE
:100F4A004001A1007608A0002108A3002008A20001
:100F5A00A336A20CA336A20C220846019500400132
:100F6A0020080339A2000530A235FF3E031DB92F20
:100F7A002235460194000800FB01FC01760877043B
:100F8A000319C82FC92FF82FFD01FD0AD52F0130EB
:100F9A00F635F70D890BCD2F0130FA007A08FD07D7
:100FAA00F71FD82FD92FCC2F0130FB35FC0D890B19
:100FBA00DA2F77087902031DE42F76087802031CDA
:100FCA00E72FE82FED2F7608F8027708F93B7B1414
:100FDA000130F736F60C890BEE2F0130FD02031DA6
:100FEA00F72FF82FD92F7C08F7007B08F6000800A6
:060FFA0040018731602F69
:020000040001F9
:02001000E73FC8
:02001400FF3FAC
:00000001FF
